:100000000C94BC000C94E4000C94E4000C94E40008
:100010000C94E4000C94E4000C94E4000C94E400D0
:100020000C94E4000C94E4000C94A7060C941607BE
:100030000C94E4000C94E4000C94E4000C94E400B0
:100040000C94E4000C94E4000C94E4000C94E400A0
:100050000C94E4000C94E4000C94E4000C945D0611
:100060000C94E4000C94E4000C94E4000C94E40080
:100070000C94E4000C94E4000C94E4000C94E40070
:100080000C94E4000C94E4000C94E4000C94E40060
:100090000C94E4000C94E4000C94E4000C94E40050
:1000A0000C94E4000C94E4000C94E40006C0FF0AF5
:1000B000000CA1017508150026FF0095400901817B
:1000C00002954009029102C0080B000202020000E2
:1000D00009040000010202000005240010010524AB
:1000E000010101042402060524060001070581031D
:1000F00010004009040100020A0000000705020286
:1001000040000007058302400000040309041201B7
:100110000002EF02014054354FF5000101020301D6
:10012000556E6B6E6F776E00322E344720576972B2
:10013000656C657373205265636569766572000549
:10014000010902A1010901A100850105091901297F
:10015000031500250195037501810295017505813F
:100160000305010930093116018026FF7F751095BE
:10017000028106C0C000420911241FBECFEFDAE0A1
:10018000DEBFCDBF11E0A0E0B1E0E4EEF5E102C0DA
:1001900005900D92A436B107D9F722E0A4E6B1E0AC
:1001A00001C01D92A136B207E1F710E0CCEBD0E020
:1001B00004C02197FE010E94E50ACB3BD107C9F795
:1001C0000E94170A0C94F00A0C940000FC01809124
:1001D000C301882311F13FB7F89482E08093E900CE
:1001E0002091F200822F90E01816190614F481E095
:1001F00090E0882339F0289844E64093C20140916A
:10020000F1004083222339F02091F200211103C034
:100210002BE62093E8003FBF08958FEF9FEF0895EE
:10022000CF93DF931F92CDB7DEB76983DC01ED91E9
:10023000FC910280F381E02D41E050E0BE016F5F50
:100240007F4F09950F90DF91CF91089583E08093C0
:10025000E9008091F200882319F08AE38093E80096
:100260000895CF93DF931F92CDB7DEB7FC0184854D
:10027000958597FD08C02FEF3FEF358724870F90B6
:10028000DF91CF910895CE0101960E94E60001977B
:1002900019F4898190E0F3CF8FEF9FEFF0CF0F93A8
:1002A0001F93CF93DF931F92CDB7DEB78C01FC0174
:1002B0008485958597FF0BC0CE0101960E94E600CC
:1002C000019771F4898190E0F80195878487F8019E
:1002D000848595850F90DF91CF911F910F9108959F
:1002E0008FEF9FEFF1CFFC018485958597FD0BC0C3
:1002F0009FB7F89482E08093E9008091F2009FBF5D
:1003000090E0019608959FB7F89482E08093E90009
:100310008091F2009FBF90E008953FB7F8948091DC
:10032000BE019091BF01A091C001B091C10126B55D
:10033000A89B05C02F3F19F00196A11DB11D3FBF1D
:10034000BA2FA92F982F8827BC01CD01620F711DEC
:10035000811D911D42E0660F771F881F991F4A95E6
:10036000D1F70895CF92DF92EF92FF920E948D0114
:100370006B017C010E948D016C197D098E099F091A
:10038000683E734081059105A8F3FF90EF90DF90E0
:10039000CF900895409172015091730120917001A6
:1003A0003091710142175307B4F49091E8009570B1
:1003B000E1F39091E80092FD19C08093F1008091E3
:1003C00072019091730101968F739927892B19F40B
:1003D0008EEF8093E80080917201909173010196F5
:1003E000909373018093720181E0089580E00895F5
:1003F000EF92FF920F931F93CF93DF93F82E192F55
:10040000E62E042F81E0860F880F0E94CA0183E048
:100410000E94CA01CF2DD12FEC0EFD2EF11CCE155E
:10042000DF05B9F007FF13C0FE0184910E94CA01E5
:10043000182F80E00E94CA01812321968111EFCFFD
:10044000DF91CF911F910F91FF90EF9008958881D8
:10045000EDCF81E0F5CFDF92EF92FF920F931F93E4
:10046000CF93DF93D82E8A01EB017B01E40EF51EBA
:10047000CE15DF0559F0D7FE12C0FE0184910E940F
:10048000CA0121968111F4CF0FEF1FEFC801DF9150
:10049000CF911F910F91FF90EF90DF900895888189
:1004A000EECF2FB7F89487708093E9009091E80021
:1004B000892F807295FF04C09091F20080E4891B1F
:1004C0002FBF089583E00E94510290E008957F922B
:1004D0008F929F92AF92BF92CF92DF92EF92FF9254
:1004E0000F931F93CF93DF93C82E8B017A018091D6
:1004F000C301811110C08FEF9FEFDF91CF911F914A
:100500000F91FF90EF90DF90CF90BF90AF909F90B2
:100510008F907F9008958091760180FF05C0809133
:10052000E00082608093E000CE2DDF2DD12C8AEF99
:10053000B82E8C2D8770982E8C2D8072882E8C2D45
:100540008074782E9AE3A92E209719F4DD2009F4FF
:100550004EC08C2D0E945102811106C0BA94BB205E
:1005600051F20E94B201F0CF8C171D0611F00CF071
:100570008C2F9FB7F8949092E9002091E80025FD18
:1005800002C09FBFE1CF282F30E0C21BD30B8820D1
:1005900029F08150A0F01092F100FBCFF801C7FCC8
:1005A0000AC0815050F041914093F100FACF44913C
:1005B0004093F10031968150D0F7020F131FDD20D8
:1005C00021F0A092E800D12CDCCF8091E80085FDDD
:1005D00007C0A092E800DD24D394209791F2F3CFD6
:1005E000209779F6772069F2A092E800CACF5D984B
:1005F00084E680937501C70180CFCF93DF93EC0130
:1006000080911201882331F083E00E94670218165E
:10061000190634F081E090E09B838A8380E090E0CB
:10062000DF91CF910895615030F02091F100FC01ED
:1006300020830196F8CF289884E68093C20108951C
:10064000AF92BF92DF92EF92FF920F931F93CF93DF
:10065000DF935C018B01EB019BEFD92E2097C1F05A
:100660007E01C134D1051CF080E4E82EF12C80918C
:10067000E80082FFFCCFC8018C1B9D0B6E2D8A0DFC
:100680009B1D0E941303D092E800CE19DF09E6CF2C
:10069000C801DF91CF911F910F91FF90EF90DF90F4
:1006A000BF90AF900895AF92BF92CF92DF92EF923A
:1006B000FF920F931F93CF93DF936C017B018B010C
:1006C000040F151FEB015E01AE18BF08C017D1075C
:1006D00059F06991D601ED91FC910190F081E02DE6
:1006E000C6010995892B79F7C501DF91CF911F913B
:1006F0000F91FF90EF90DF90CF90BF90AF90089553
:100700008091680181110DC082E08093640184E0D2
:1007100080936501109267011092660181E08093D9
:10072000680184E691E008950F931F93CF93DF93C0
:100730001F92CDB7DEB782E0898342E450E068ECD7
:1007400070E080E80E942B020E948003DC01129678
:100750000D911C910115110589F0D801ED91FC91C5
:100760000280F381E02DBE016F5F7F4FC8010995C4
:1007700097FD04C0F80100851185ECCF89810F90A9
:10078000DF91CF911F910F910895CF93DF93FC01DB
:10079000DB01818114963C911497682F630F7727B2
:1007A000771F683071059CF5C281D381209739F598
:1007B000B383A283908112969C93129713968C9385
:1007C000139715968C911597890F808390E080E0A0
:1007D000831708F52181C22FD0E0BE0160507F4F02
:1007E00016964D915C911797480F591FEA01488161
:1007F000EB0148832F5F21830196EACFEA01488508
:10080000598541155105D1F7B987A887D3CF80E025
:10081000DF91CF91089581E0FBCF0F931F93CF938A
:10082000DF93EC01FB012A81848195812817190649
:1008300041F491818081813A31F49D7F81E0913052
:1008400049F080E007C08132E1F79B3041F48281BA
:100850008F8B81E0DF91CF911F910F9108959A3096
:1008600019F48381888FF5CF993059F70681178164
:100870008381833081F489A19AA10817190709F7A8
:10088000B8018F8D98A10E94200389A19AA1906838
:100890009AA389A3DECF8230A1F68B8D9C8D892B04
:1008A00081F6898D9A8D801791075CF2801B910BE0
:1008B0002D8D3E8DB801820F931F0E9420031C8F47
:1008C0000B8FC7CFFB0120812138B1F42381223265
:1008D00099F4DC0112964C911297248135814217CC
:1008E000130651F421E057962C934CE150E06CEA4A
:1008F00070E080E80C942B0290E080E00895CF93A4
:10090000DF93CDB7DEB769970FB6F894DEBF0FBEA1
:10091000CDBFFC01DB019C919F5F9C939E012D5FED
:100920003F4F81E1D9011D928A95E9F729E029839A
:1009300084E08A8391E09D8383E08E832A8721E28D
:100940002B879C879D879F8722E2288B2CE1298B10
:1009500027E02B8B25E02C8B8E8B20E430E0388F2A
:100960002F8B998F82818B83838180688D8B49E166
:1009700050E0BE016F5F7F4F80E00E942B026996BE
:100980000FB6F894DEBF0FBECDBFDF91CF910895B3
:10099000CF93DF931F92CDB7DEB76983DC01ED9172
:1009A000FC910288F389E02D41E050E0BE016F5FC9
:1009B0007F4F09950F90DF91CF9108950A970C947E
:1009C000C80408950895DC015B968D919C915C9715
:1009D0001816190674F459962D913C915A97281BB4
:1009E000390B5D96ED91FC91E20FF31F808190E051
:1009F00008958FEF9FEF08950A970C94E304FC018C
:100A0000438D548D141615068CF4858D968D218D8D
:100A1000328DBA0161507109748F638FF901E41B43
:100A2000F50BE80FF91F808190E008958FEF9FEF9D
:100A300008950A970C94FF04FC018189928997FF1D
:100A400002C090E080E00895FC01838D948D97FFB3
:100A500002C090E080E00895FC0182818F5BFB0181
:100A6000808381E0089590E080E00895DC01FB013F
:100A700012962C911297848195812817190641F4BA
:100A800091818081813A31F49D7F81E0913009F03C
:100A900080E008958132E1F79B3029F482811F962E
:100AA0008C9381E008959A3099F7828150968C93C7
:100AB000F8CFDC01FB0188E4808389E4818384E44E
:100AC00082831D969C911D979F709F5B93831D96BB
:100AD0008D919C9124E0969587952A95E1F78F70EA
:100AE0008F5B848385E00895EF92FF920F931F93AD
:100AF000CF93DF93FB012081213871F523812232CE
:100B000059F5DC0112964C91248135814217130668
:100B100019F5EC010B851C85F12CE12C0115110553
:100B200089F0F801448155816281738180E80E94D7
:100B30002B028F3F980749F0E80EF91ED8010D915E
:100B40001C91ECCF81E08F87C701DF91CF911F917E
:100B50000F91FF90EF90089590E080E0F6CFCF9353
:100B6000DF93CDB7DEB769970FB6F894DEBF0FBE3F
:100B7000CDBFFC01DB018C918F5F8C939E012D5FBB
:100B80003F4F8DE0D9011D928A95E9F729E029832D
:100B900084E08A8391E09D8383E08E832A8721E22B
:100BA0002B879C879D879F8722E2288B27E02B8BB2
:100BB00025E02C8B8E8B20E430E0388F2F8B998FA3
:100BC00082818B8395858685998B8A8B83818068CA
:100BD0008D8B49E150E0BE016F5F7F4F80E00E9446
:100BE0002B0269960FB6F894DEBF0FBECDBFDF9122
:100BF000CF910895FC01838180640C946702EF9289
:100C0000FF921F93CF93DF931F92CDB7DEB77B0187
:100C1000FB012081FC0122838091480281112CC0BC
:100C200011E010933B0210933C0281E492E0909318
:100C30003E0280933D021092400210923F0283E5F3
:100C400091E0909338028093370210924302109201
:100C500042021092450210924402109346021093F1
:100C6000470281EC809341020E94800367E372E0B7
:100C70000E94C5031093480281E0898341E050E05F
:100C8000BE016F5F7F4F80913A020E94670297FD1D
:100C900008C080913A0245E050E0B70180640E94AC
:100CA00067020F90DF91CF911F91FF90EF90089511
:100CB00090E080E008950E94EB0A1F920F920FB619
:100CC0000F9211242F933F938F939F93AF93BF93D2
:100CD0008091BA019091BB01A091BC01B091BD017E
:100CE0003091B90123E0230F2D3758F50196A11D4E
:100CF000B11D2093B9018093BA019093BB01A093D9
:100D0000BC01B093BD018091BE019091BF01A09143
:100D1000C001B091C1010196A11DB11D8093BE011A
:100D20009093BF01A093C001B093C101BF91AF9157
:100D30009F918F913F912F910F900FBE0F901F9019
:100D4000189526E8230F0296A11DB11DD2CF1F9240
:100D50000F920FB60F9211248F939F938091E10011
:100D60009091E100937F9093E10083FF0FC0109278
:100D7000E90091E09093EB001092EC0092E39093E5
:100D8000ED001092C30198E09093F00082FF22C022
:100D900093E09093E9009091F200992319F09AE37F
:100DA0009093E80090917501992341F0909175011D
:100DB000915090937501911101C05D9A9091C2017B
:100DC000992341F09091C20191509093C2019111E9
:100DD00001C0289A84FF18C08091E2008E7E816055
:100DE0008093E2008091E1008F7E8093E10080910A
:100DF00076018E7E8061809376019F918F910F9016
:100E00000FBE0F901F90189580FFF7CF8091E200E2
:100E10008E7E80618093E2008091E1008E7E8093DF
:100E2000E100809176018E7E8160E5CF1F920F9266
:100E30000FB60F921124CF92DF92EF92FF920F9391
:100E40001F932F933F934F935F936F937F938F9352
:100E50009F93AF93BF93EF93FF93CF93DF93CDB760
:100E6000DEB76C97DEBFCDBF1092E9008091E8003D
:100E700083FF25C068E0CE0145960E94130382EFF0
:100E80008093E8008D8987FF39C09091E80090FF3A
:100E9000FCCF982F907609F034C19E894F89588DE8
:100EA0002F89F88C911131C0803861F580917701DC
:100EB0008093F1001092F1008EEF8093E8006C9621
:100EC0000FB6F894DEBF0FBECDBFDF91CF91FF917B
:100ED000EF91BF91AF919F918F917F916F915F91B2
:100EE0004F913F912F911F910F91FF90EF90DF90C5
:100EF000CF900F900FBE0F901F9018959EEF90937C
:100F0000E800C7CF1092F100D5CF913059F481118C
:100F1000D3CF4130510581F6809177018D7F809349
:100F20007701CACF933049F48111C6CF41305105C2
:100F300019F6809177018260F2CF953041F480916B
:100F4000E80080FFFCCF20682093E300B5CF963007
:100F500009F0A9C00B8D1C8D22E01092E9001092BF
:100F6000730110927201F2122EC010927101109250
:100F700070010E9494031F8299E09983FA8291E0A4
:100F80009E8390EA98879AEF998720917201309119
:100F90007301275F3F4F3C832B838D831092E900C1
:100FA00010927301109272011093710100937001FD
:100FB00049E050E0BE016F5F7F4F80E00E942B024E
:100FC0000E94940379CF10937101009370010E94E5
:100FD0008003DC0112960D911C910115110509F495
:100FE0004BC1D801ED91FC910480F581E02DBE014B
:100FF0006B5E7F4FC8010995009709F038C1F80171
:1010000000851185EACFF3E0FF120EC08F89882397
:1010100009F440C0823061F440E866E188E291E082
:101020000E94F801811148CF81E28093EB0047CF05
:10103000813029F440E867E080E291E0F1CF83302D
:1010400099F70E948003DC011296ED90FC908E01CE
:101050000F5F1F4F6801E114F10479F0D701ED91A2
:10106000FC910680F781E02DB801C7010995080FB2
:10107000111DF701E084F184EECFD8011C92F60136
:1010800001900020E9F73197BF016C197D0940E01C
:10109000C601C6CF6AE071E0FB01449150E080E8F0
:1010A0000E942B0209CF973009F4BECF983021F46B
:1010B00081E08093F10000CF993009F0FDCE83707C
:1010C00009F0B2CFE1E0F1E081E031E096E3219177
:1010D000222371F08093E9003093EB00DF01119738
:1010E0002C912093EC009093ED008F5F873079F77F
:1010F0008EE78093EA001092EA008F898093C30103
:10110000DBCE8B8D9C8D1092E900109273011092B2
:1011100072019093710180937001898D81118CC04F
:101120008E899D89913A49F4813209F07DCF47E05B
:1011300050E06BE071E080E0B3CF913209F074CF02
:10114000833269F48F89988DB0E0A0E08093070125
:1011500090930801A0930901B0930A01ADCE8032AB
:1011600039F467E070E08BE091E00E942003A4CEA8
:10117000823209F0A1CE8F8980931201EEEFFFE752
:10118000859194918B3F9C4D51F1E0E0F8E0809186
:101190000B0190910C01A0910D01B0910E01803BCB
:1011A0009440A105B105F1F48091120180FD1AC0AF
:1011B000EE3F8AE0F80789F587E797E79183808318
:1011C000809160008093740188E19BE00FB6F894F1
:1011D000A895809360000FBE909360006DCEEEEFF7
:1011E000FAE0D5CF808191818737974709F064CEA7
:1011F000A89580916000886180936000809174015F
:1012000080936000EE3F2AE0F20789F08091FE0AA9
:101210009091FF0A918380834FCE8081918187379F
:10122000980751F29093FF0A8093FE0AC5CF10925F
:10123000FF0A1092FE0A40CE0E948003DC01129643
:101240000D911C910115110509F4EECED801ED9117
:10125000FC910190F081E02DBE016B5E7F4FC801D3
:101260000995811129CEF80100851185EBCF18165B
:1012700019060CF421CED8CEF1E0FF12C4CE6EE0F8
:1012800071E00ACFCF931092C7011092C60188EE89
:1012900093E0A0E0B0E08093C8019093C901A093CF
:1012A000CA01B093CB0127E131E03093C50120930F
:1012B000C4012FEF3FEF3093D1012093D001C1E063
:1012C000C0931802C09319022AE232E030931B0245
:1012D00020931A0210921D0210921C0210922102F9
:1012E000109220028093220290932302A093240262
:1012F000B093250289E291E0909315028093140245
:1013000081E491E090931F0280931E02C0932B0210
:10131000C0932C0210922E0210922D0210923002D5
:1013200010922F0210923402109233021092360261
:101330001092350281EC80932A020E94800364E1BE
:1013400072E00E94C503109260028FE591E09093D5
:101350005F0280935E0280915602811112C010924A
:101360005102109250028FE391E0909353028093C8
:10137000520286E390E09093550280935402C0930A
:1013800056028091480281112CC0C1E0C0933B02FB
:10139000C0933C0281E492E090933E0280933D0230
:1013A0001092400210923F0283E591E09093380240
:1013B000809337021092430210924202109245022B
:1013C00010924402C0934602C093470281EC80937E
:1013D00041020E94800367E372E00E94C503C0934C
:1013E0004802E0914202F09143023097B9F480E55F
:1013F00092E0909343028093420280914402909144
:1014000045022091540230915502820F931F909310
:10141000450280934402CF910895FC01808191811F
:101420000097D9F780E592E091838083E6CF7894A6
:1014300084B5826084BD84B5816084BD85B58260D9
:1014400085BD85B5816085BD80916E00816080938A
:101450006E001092810080918100826080938100F3
:101460008091810081608093810080918000816003
:1014700080938000809191008260809391008091A0
:1014800091008160809391008091900081608093B1
:1014900090008091C10084608093C1008091C10060
:1014A00082608093C1008091C10081608093C100FF
:1014B0008091C30081608093C3008091C0008260EE
:1014C0008093C0008091C20081608093C2008091AF
:1014D0007A00846080937A0080917A0082608093A1
:1014E0007A0080917A00816080937A0080917A00FE
:1014F000806880937A001092C30110927701109255
:1015000076018091D70081608093D70080EA809334
:10151000D80089B5806189BD89B5826089BD09B46B
:1015200000FEFDCF0E94B2018091D8008F7C8061C7
:101530008093D8008091E000807F8093E0008091CC
:10154000E1008E7E8093E1008DE08093E200559A69
:10155000209A88E791E0909332028093310280E4F0
:1015600090E090932E0280932D0210923002109200
:101570002F02C0E0D0E011E080912F029091300264
:1015800018161906ECF480917801893F59F0809182
:10159000B801882389F068E771E08EE592E00E9447
:1015A000FF050AC040E450E068E771E084E192E0A2
:1015B0000E94FA051093B8011092300210922F0287
:1015C0002097D1F20E940000D7CFEE0FFF1F0590A9
:1015D000F491E02D099481E090E0F8940C94F00AE5
:0415E000F894FFCFAD
:1015E40000C18081000000FFFFFFFF00E100000058
:1015F400000000000000001001FD026202260173D9
:101604000131014F01000000000D047F0462042C2D
:10161400052405FF04E304E204C804FA05F6FF0008
:1016240000DE0453033305E1041C051905FC040022
:101634000000003605AF057405590500000000FFE1
:04164400055806003F
:00000001FF
